:1000000027C1000056C1000054C1000052C10000C9
:1000100050C100004EC100004CC100004AC10000A8
:1000200048C1000046C1000044C1000042C10000B8
:1000300040C100003EC100003CC100003AC10000C8
:1000400038C1000036C1000034C1000032C10000D8
:1000500030C100002EC100002CC100000C946C09BE
:1000600028C1000026C1000024C1000022C10000F8
:1000700020C100001EC100001CC100001AC1000008
:1000800018C1000016C1000014C1000012C1000018
:1000900010C100000EC100000CC100000AC1000028
:1000A00008C1000006C1000004C1000002C1000038
:1000B00000C10000FEC00000FCC00000FAC000004B
:1000C000F8C00000F6C00000F4C00000F2C000005C
:1000D000F0C00000EEC00000ECC00000EAC000006C
:1000E000E8C000004A0A4F0A540A5E0A680AE10A98
:1000F000720A7A0A820A8C0A960AA00AAF0AB90A18
:10010000E10AC30ACD0AD70A040B070BF60AFA0A5A
:10011000000B3E0B0B0B0F0B150B190B1D0B230BC1
:10012000270B2B0B3E0B310B350B390B00000A0B49
:1001300002090C0D0E080703040100000000000076
:1001400000000000000000000000000000000000AF
:10015000000000000000000012111000000000006C
:10016000000000000000000000000000000000008F
:1001700000000102102020080810204010204080BC
:10018000020102010804020101020408102040805B
:1001900080402010080402018004020180402010E9
:1001A0000804020108040201010204081020408032
:1001B0000102040810204080050505050705080810
:1001C0000808020202020A0A0808040404040101E1
:1001D00001010101010103030303030303030407F6
:1001E00007070C0C0C0C0C0C0C0C0202020206068D
:1001F0000606060606060B0B0B0B0B0B0B0B000083
:1002000020002300260029002C002F0032000001CE
:10021000000003010601090100002200250028005A
:100220002B002E00310034000201000005010801FE
:100230000B0100002100240027002A002D003000BF
:10024000330001010000040107010A01AB085E0947
:1002500011241FBECFEFD1E2DEBFCDBF00E00CBF47
:1002600012E0A0E0B2E0E2E5FEE100E00BBF02C078
:1002700007900D92A23BB107D9F724E0A2EBB2E0C0
:1002800001C01D92AC3EB207E1F711E0C7E2D1E038
:1002900000E006C021970109802FFE010E94F40BA7
:1002A000C632D10780E00807A9F70E9460090C94C4
:1002B000180FA6CE0895FB0120813181FC01368301
:1002C00025830895FB0120813181FC013487238738
:1002D0000895FB0120813181FC013687258708952F
:1002E00008950895089508950895FB0180819181EE
:1002F000892B59F482819381892B39F4868181116C
:1003000004C0978181E08927089580E00895FB016A
:1003100081E090E0918380839383828395838483BB
:100320009783868311861086138612860895089512
:10033000DC01FB012081318121153105E9F0828149
:1003400093810097C9F028173907B1F0948185810E
:10035000981312C0868181110FC0478141110DC0D1
:1003600081E02130310509F080E012968C931297DC
:1003700013969C9381E0089580E00895FB01DC01D1
:1003800012962C91129713968C912223B9F0811119
:1003900003C020E030E002C022E030E0318320835F
:1003A00021E030E03583248333832283811103C02D
:1003B00080E090E01BC082E090E018C021E030E0D7
:1003C00031832083811103C020E030E002C022E0AD
:1003D00030E035832483811103C080E090E002C0C7
:1003E00082E090E09383828381E090E0978386832C
:1003F000118610861386128608950895FB01DC018C
:1004000012968C91811103C020E030E002C022E0FE
:1004100030E031832083811103C082E090E002C08C
:1004200080E090E09383828381E090E095838483F1
:100430009783868311861086138612860895089501
:10044000FB01DC0112962C91129713968C912223BA
:1004500081F0811103C080E090E002C082E090E072
:100460009183808381E090E095838483938382836A
:1004700011C021E030E03183208335832483811152
:1004800003C080E090E002C082E090E0938382832A
:1004900081E090E09783868311861086138612860A
:1004A00008950895DC01FB0181E090E09183808351
:1004B00095838483938382839783868311861086B2
:1004C0001386128612968C911297882361F01496E7
:1004D0008C911497811103C080E090E002C082E00B
:1004E00090E09583848313968C911397882359F019
:1004F00015968C91811103C080E090E002C082E0EB
:1005000090E09783868308950895FB01DC0112969D
:100510002C91129713968C912223B9F0811103C06C
:1005200020E030E002C022E030E03183208321E08F
:1005300030E03583248333832283811103C082E03A
:1005400090E01BC080E090E018C021E030E03183F3
:100550002083811103C022E030E002C020E030E0BF
:1005600035832483811103C080E090E002C082E0E3
:1005700090E09383828381E090E097838683118665
:1005800010861386128608950895FC01DB011696E5
:100590002C91169717969C911797211103C0892FBC
:1005A0009923E9F0228315968C911597858381E034
:1005B00012962D913C9113972F3F3F4F09F080E009
:1005C0008783938314968C911497848381E02D9173
:1005D0003C912F3F3F4F09F080E0868381E00895F2
:1005E00008950895CF93DF93EC016D818A810E9475
:1005F0007B0B81E08C83DF91CF910895CF93DF93C4
:10060000EC016F818A810E947B0B1C82DF91CF916C
:10061000089561C660C65FC65EC65DC65CC65BC641
:100620005AC659C658C657C656C655C6DC01FB0140
:1006300080819181019791F482819381019771F476
:1006400094818581981751F08681811107C0278197
:10065000211105C012969C9381E0089580E00895D1
:10066000DC01FB018681811123C08781811120C0BB
:10067000208131812130310561F422813381232BA6
:10068000C1F4848113968C93139781E012968C9316
:100690000895232B71F4228133812130310549F4EF
:1006A000858113968C93139712961C9281E008957E
:1006B00080E00895FC01DB0116968C91169781115C
:1006C0003FC017968C91179781113AC02D913C919C
:1006D00011972F3F9FEF390791F412962D913C917E
:1006E000139721153105F1F414968C911497848396
:1006F00015968C91858381E0828313820895232B44
:1007000001F512962D913C9113972F3F3F4FC9F45D
:1007100014968C911497848315968C9185831282FC
:1007200081E00CC02F3F3F4F61F414968C911497D9
:10073000848315968C91858381E0828383830895D9
:1007400080E00895DC01FB018681811127C087814B
:10075000811124C044819581491709F1208131819B
:100760002130310561F4228133812F3F3F4FB9F4AD
:1007700013964C93139781E012968C9308952F3F14
:100780003F4F69F4228133812130310541F41396C2
:100790009C93139712961C9281E0089580E008952F
:1007A000DC01FB0112968C91129713969C91139782
:1007B000882361F191112AC017968C91179788238D
:1007C000B1F081E090E0918380839583848393836B
:1007D000828315968C91811103C080E090E002C065
:1007E00082E090E09783868381E090E00AC081E018
:1007F00090E091838083958384839383828397831E
:100800008683918780871386128608959923B1F194
:10081000811126C016968C911697882391F081E05D
:1008200090E09183808314968C91811103C080E0C5
:1008300090E002C082E090E09583848381E090E0C4
:1008400006C081E090E091838083958384839383C5
:100850008283978386839387828711861086089583
:1008600081E090E091838083958384839383828366
:100870009783868393878287918780870895CF9314
:10088000DF93EC010296BADECE014D96DF91CF9157
:10089000B5CEFC01862F2CE132E0318320836283C8
:1008A0007383148228EC30E0368325831086178208
:1008B00061E0E5C6CF93DF93EC01EBDF88E292E0E5
:1008C0009983888388EE93E09A87898784E690E00D
:1008D0009C878B8728EC30E03E872D8740E050E0F6
:1008E00060E772E44F87588B698B7A8B9C8B8B8B7C
:1008F00088E592E09E8B8D8B80E293E0988F8F8BC2
:100900001A8E198EDF91CF9108958F929F92AF9298
:10091000BF92CF92DF92EF92FF920F931F93CF93EC
:10092000DF93EC018C81882309F49AC0CB01BA01D2
:1009300029853A8540E050E035D7CB88DC88E12C2A
:10094000F12C6C157D058E059F0558F50E94FA0C5B
:100950004B015C01C701B6010E94FA0C9B01AC017E
:10096000C501B401AED76B017C019B01AC0160E015
:1009700070E080E89FE340D74B015C018F81988550
:10098000BC0180E090E00E94FA0C9B01AC01C50123
:10099000B4010E94880D4B015C018D819E81BC01D8
:1009A00045C0CD88DE88E12CF12C6C157D058E05C7
:1009B0009F0518F40D811E8149C08F88988CA12C49
:1009C000B12C0F811885681579058A059B0508F0FB
:1009D0003DC06C197D098E099F090E94FA0C6B01BC
:1009E0007C018D859E85BC0180E090E00E94FA0C20
:1009F0009B01AC01C701B60164D76B017C019B016F
:100A0000AC0160E070E080E89FE3F6D64B015C014A
:100A10006D817E8180E090E0EDD79B01AC01C50146
:100A2000B4010E94880D4B015C01B80180E090E0A8
:100A3000E1D79B01AC01C701B6010E94880D9B0163
:100A4000AC01C501B401D9D6A4D78B01898D9A8D8B
:100A50000817190729F0B8018A81F6D41A8F098F6F
:100A6000DF91CF911F910F91FF90EF90DF90CF908A
:100A7000BF90AF909F908F900895CF92DF92EF92AA
:100A8000FF92CF93DF93EC016A017B0102963DDF79
:100A9000B701A601CE014D96DF91CF91FF90EF9067
:100AA000DF90CF9032CF8F96E8CFCF92DF92EF9248
:100AB000FF92CF93DF93EC016A017B010B9625DF58
:100AC000B701A601CE018F96DF91CF91FF90EF90F5
:100AD000DF90CF90D2CF02966130710509F482CDBC
:100AE0008DCDCF93DF93EC016230710569F06330F7
:100AF000710569F06130710589F4029673DDCE01EC
:100B00004D96DF91CF917ACD029678DD02C00296A4
:100B100069DDCE014D96DF91CF9164CDDF91CF910C
:100B2000AECEEF92FF920F931F93CF93DF939C0172
:100B3000FC01E959FF4F718360830296A901455F6B
:100B40005F4F7A0189010A5D1F4FE901AF9661305D
:100B5000710569F062307105C9F0672BF9F442DD67
:100B6000C7014CDDC8013EDD61E070E007C046DD35
:100B7000C70138DDC80142DD62E070E0CE01DF91DF
:100B8000CF911F910F91FF90EF90ABCF2BDDC7015D
:100B900035DDC80133DD63E070E0F0CF2FDDC70144
:100BA0002DDDC8012BDDCE01DF91CF911F910F917B
:100BB000FF90EF9064CEAF92BF92CF92DF92EF9210
:100BC000FF920F931F93CF93DF93EC015A016901BA
:100BD0002EE432E0FC0121933193CF015ADEB501BE
:100BE000CE010B9667DEB601CE01869652DE84E416
:100BF00092E098AB8FA76E01FFE2CF0ED11CB80137
:100C0000CE01C19657DEB701C6014D9653DEFE01F7
:100C1000E959FF4F81E090E09183808361E070E0CB
:100C2000CE01DF91CF911F910F91FF90EF90DF9058
:100C3000CF90BF90AF9075CF6F927F928F929F921F
:100C4000AF92BF92CF92DF92EF92FF920F931F93DA
:100C5000CF93DF93EC013A01490128E532E0FC0132
:100C600021933193CF0115DEB301CE010B9611DE36
:100C7000B401CE0144960DDEB801CE014D9609DED9
:100C8000B701CE01869605DE84E492E098AB8FA78B
:100C90008E01015D1F4FB601CE01C1960BDEB5017D
:100CA000C8014D96DF91CF911F910F91FF90EF906A
:100CB000DF90CF90BF90AF909F908F907F906F907C
:100CC000F9CD8F929F92AF92BF92CF92DF92EF9227
:100CD000FF920F931F93CF93DF93EC018A0102964B
:100CE0009E01255F3F4F4901275F3F4F5901275F15
:100CF0003F4F6901275F3F4F79016130710509F46A
:100D000046C06230710521F1672B09F04DC06ADCE5
:100D1000C40174DCC50166DCC60170DCC70162DC9D
:100D20000130110579F4CE018F96DF91CF911F919B
:100D30000F91FF90EF90DF90CF90BF90AF909F907A
:100D40008F909DCD0230110589F462E070E010C0F3
:100D500055DCC40147DCC50151DCC60143DCC701D9
:100D60004DDC01301105F9F2012B79F361E070E0FF
:100D7000CE018F96DF91CF911F910F91FF90EF9051
:100D8000DF90CF90BF90AF909F908F90AACE36DC2F
:100D9000C40128DCC50132DCC60130DCC70122DC1D
:100DA0000130110591F6BFCF29DCC40127DCC50154
:100DB00025DCC60123DCC701DF91CF911F910F9184
:100DC000FF90EF90DF90CF90BF90AF909F908F906B
:100DD00015CCCF93DF938091160290911702DC011E
:100DE000ED91FC910680F781E02D67EE72E0199598
:100DF000C7EED2E06881798186E794E092DE6A816D
:100E00007B818DE094E08DDE4091740450917504F7
:100E10006C817D8186EA93E054DF4091DD0450913E
:100E2000DE046E817F818FE393E04BDF68857985F7
:100E300084E393E050DE6A857B8589E293E0DF916D
:100E4000CF9149CECF93DF93EC01488159816A81DC
:100E50007B8186E794E029DE488159816A817B8124
:100E60008DE094E022DE488159816A817B8185EDA5
:100E700093E003DE488159816A817B818EE693E0AD
:100E8000DF91CF91FACDDF92EF92FF920F931F93F4
:100E9000CF93DF93809114025DD47C018091120284
:100EA00059D4E114F10429F4892B69F001E010E030
:100EB0000CC0009741F0EA94EF2839F4019729F427
:100EC00000E010E002C00FEF1FEF80910C0242D44F
:100ED0007C0180910A023ED4E114F10429F4892BAB
:100EE00069F0CFEFDFEF0CC0009741F0EA94EF28F4
:100EF00039F4019729F4C0E0D0E002C0C1E0D0E0AD
:100F00008091100227D4DD24D394892B09F0D12CB1
:100F1000809108021FD4EE24E394892B09F0E12C80
:100F200080910E0217D4FF24F394892B09F0F12C41
:100F3000809106020FD421E0892B09F020E08091F6
:100F4000B2029091B30208171907C9F48091B40254
:100F50009091B502C817D90791F48091B602D812C2
:100F60000EC08091B702E8120AC08091B802F81250
:100F700006C08091B902281302C080E011C010930E
:100F8000B3020093B202D093B502C093B402D092E0
:100F9000B602E092B702F092B8022093B90281E063
:100FA000DF91CF911F910F91FF90EF90DF90089507
:100FB0000F931F93CF93DF930AEB12E0C0E0D0E0D2
:100FC000D8018D919D918D01DC01ED91FC91048002
:100FD000F581E02D62EB72E01995882339F0CC0F92
:100FE000DD1FC654DD4F2881398106C02196C730E8
:100FF000D10531F725EE32E0309317022093160227
:10100000DF91CF911F910F910895EAEBF2E085EE09
:1010100092E0918380838EED92E09383828382EECF
:1010200092E0958384838AED92E09783868384EDB2
:1010300092E09187808780ED92E09387828788ECA9
:1010400092E095878487089562E08091140217D317
:1010500062E08091120213D362E0809110020FD3FC
:1010600062E080910E020BD362E080910C0207D304
:1010700062E080910A0203D362E080910802FFD20D
:1010800062E080910602FBD2EEE0F3E01486138664
:1010900016861586E3EFF2E014861386168615860B
:1010A000B4DF97CEFC018081882329F18EE093E0A4
:1010B00099DA8091B2029091B302892B19F080EDF8
:1010C00097E002C084EF91E0909318038093170398
:1010D00083EF92E087DA8091B4029091B502892B78
:1010E00019F080ED97E002C084EF91E09093FD024B
:1010F0008093FC0208958EE093E080DA83EF92E023
:101100007DCACF93DF9300D01F921F92CDB7DEB779
:101110002DD169837A838B839C8324EF31E040E077
:1011200050E040D3672B682B692B19F4ACDE81119A
:101130000BC0CE01019686DE0F900F900F900F909E
:101140000F90DF91CF91089533DF8D83CE01059607
:10115000A9DF3FDEEECFAF92BF92CF92DF92EF9248
:10116000FF920F931F93CF93DF9383E0E82EF12C30
:1011700002E010E020E230E044E050E06EE170E098
:1011800086E794E018DD99E0E92EF12C08E010E004
:1011900021E230E04AE050E06FE170E08DE094E061
:1011A0000ADD2CE0A22EB12C3BE0C32ED12C4AE26A
:1011B000E42EF12C08E210E024E230E046E250E0B8
:1011C00062E270E086EA93E037DD56E0A52EB12CAE
:1011D00065E0C62ED12C7BE2E72EF12C09E210E06F
:1011E00025E230E047E250E063E270E08FE393E015
:1011F00023DDCAE3D2E0D0933503C09334036CE21D
:1012000070E086E393E045DBD0932A03C093290383
:101210006DE270E08BE293E03CDB69E170E08EE030
:1012200093E048DB67E170E083EF92E043DB82E626
:1012300092E09093E6028093E502E2EEF2E08AE724
:1012400092E0918380831282EEEDF2E08EE692E0EE
:101250009183808381E082831382EAEDF2E026E8C5
:1012600032E03183208382831382E4EDF2E022E9CD
:1012700032E0318320838283838314821582E0ED00
:10128000F2E02EE932E03183208382831382E8EC9E
:10129000F2E08AEA92E091838083128213821482C0
:1012A000158216821782DF91CF911F910F91FF90C7
:1012B000EF90DF90CF90BF90AF900895089508957C
:1012C00061D0FDDFC1DEC0E0D0E01BDF2097E9F395
:1012D0000E940000FACF14C51F920F920FB60F9212
:1012E00011242F933F938F939F93AF93BF9380913C
:1012F000E0049091E104A091E204B091E304309104
:10130000DF0423E0230F2D3720F40196A11DB11D2A
:1013100005C026E8230F0296A11DB11D2093DF040E
:101320008093E0049093E104A093E204B093E3047B
:101330008091E4049091E504A091E604B091E70463
:101340000196A11DB11D8093E4049093E504A09340
:10135000E604B093E704BF91AF919F918F913F91C5
:101360002F910F900FBE0F901F9018952FB7F894E4
:101370006091E0047091E1048091E2049091E304B3
:101380002FBF0895789484B5826084BD84B5816050
:1013900084BD85B5826085BD85B5816085BDEEE67D
:1013A000F0E0808181608083E1E8F0E0108280815C
:1013B00082608083808181608083E0E8F0E08081CA
:1013C00081608083E1EBF0E0808184608083E0EBEA
:1013D000F0E0808181608083E1E9F0E080818260DB
:1013E0008083808181608083E0E9F0E0808181609A
:1013F0008083E1EAF0E08081826080838081816087
:101400008083E0EAF0E0808181608083E1E2F1E0C6
:10141000808182608083808181608083E0E2F1E06E
:10142000808181608083EAE7F0E08081846080834E
:1014300080818260808380818160808380818068F8
:1014400080831092C10008951F93CF93DF93182FCC
:10145000EB0161E014D1209711F460E004C0CF3FAC
:10146000D10531F461E0812FDF91CF911F9143C10C
:10147000E12FF0E0E45DFE4FE4914E2F50E0FA01E1
:101480003197E231F10508F09CC08827EE58FF4FF4
:101490008F4FAAC184B5806884BDC7BD97C084B58D
:1014A000806284BDC8BD92C08091800080688093B6
:1014B0008000D0938900C093880088C0809180000C
:1014C000806280938000D0938B00C0938A007EC09E
:1014D00080918000886080938000D0938D00C093BD
:1014E0008C0074C08091B00080688093B000C0937D
:1014F000B3006CC08091B00080628093B000C09354
:10150000B40064C080919000806880939000D09374
:101510009900C09398005AC0809190008062809397
:101520009000D0939B00C0939A0050C0809190008F
:10153000886080939000D0939D00C0939C0046C02B
:101540008091A00080688093A0008091A0008F7B94
:101550008093A000D093A900C093A80037C08091C9
:10156000A00080628093A000D093AB00C093AA003B
:101570002DC08091A00088608093A000D093AD0022
:10158000C093AC0023C0809120018068809320012B
:10159000D0932901C093280119C080912001806255
:1015A00080932001D0932B01C0932A010FC080911A
:1015B0002001886080932001D0932D01C0932C01DD
:1015C00005C0C038D1050CF04DCF47CFDF91CF918A
:1015D0001F91089590E0FC013197E231F10508F088
:1015E0004DC08827EC57FF4F8F4FFEC08091800081
:1015F0008F7703C0809180008F7D80938000089555
:1016000080918000877FF9CF84B58F7702C084B541
:101610008F7D84BD08958091B0008F7703C0809145
:10162000B0008F7D8093B0000895809190008F77F7
:1016300007C0809190008F7D03C080919000877FCC
:101640008093900008958091A0008F7707C08091CB
:10165000A0008F7D03C08091A000877F8093A000B1
:101660000895809120018F7707C0809120018F7DA0
:1016700003C080912001877F809320010895CF933C
:10168000DF9390E0FC01EE58FE4F2491FC01E854FA
:10169000FE4F8491882361F190E0880F991FFC012F
:1016A000EE5CFD4FC591D491FC01E85EFD4FA59124
:1016B000B491611109C09FB7F89488812095822365
:1016C0008883EC912E230BC0623061F49FB7F894AD
:1016D0003881822F809583238883EC912E2B2C9345
:1016E0009FBF06C08FB7F894E8812E2B28838FBF49
:1016F000DF91CF9108951F93CF93DF93282F30E090
:10170000F901E45DFE4F8491F901EE58FE4FD4914A
:10171000F901E854FE4FC491CC23C1F0162F81117A
:1017200059DFEC2FF0E0EE0FFF1FE85EFD4FA591B3
:10173000B4918FB7F894111105C09C91ED2FE095ED
:10174000E92302C0EC91ED2BEC938FBFDF91CF9199
:101750001F910895CF93DF93282F30E0F901E45DC6
:10176000FE4F8491F901EE58FE4FD491F901E854EF
:10177000FE4FC491CC2389F081112CDFEC2FF0E0D7
:10178000EE0FFF1FE250FE4FA591B491EC91ED23B7
:1017900081E090E021F480E002C080E090E0DF9101
:1017A000CF910895A1E21A2EAA1BBB1BFD010DC00B
:1017B000AA1FBB1FEE1FFF1FA217B307E407F50701
:1017C00020F0A21BB30BE40BF50B661F771F881FDD
:1017D000991F1A9469F760957095809590959B0173
:1017E000AC01BD01CF010895EE0FFF1F881F8BBF15
:1017F0000790F691E02D19945058BB27AA270ED0D8
:101800004DC13ED130F043D120F031F49F3F11F46F
:101810001EF433C10EF4E095E7FB29C1E92F4FD147
:1018200080F3BA17620773078407950718F071F4FD
:101830009EF567C10EF4E0950B2EBA2FA02D0B017B
:10184000B90190010C01CA01A0011124FF27591B05
:1018500099F0593F50F4503E68F11A16F040A22F0B
:10186000232F342F4427585FF3CF4695379527957C
:10187000A795F0405395C9F77EF41F16BA0B620B7B
:10188000730B840BBAF09150A1F0FF0FBB1F661FC2
:10189000771F881FC2F70EC0BA0F621F731F841F05
:1018A00048F4879577956795B795F7959E3F08F02B
:1018B000B3CF9395880F08F09927EE0F97958795EA
:1018C00008950CD0EBC0E3D040F0DAD030F021F432
:1018D0005F3F19F0CCC0511115C1CFC0F0D098F3C3
:1018E0009923C9F35523B1F3951B550BBB27AA27A1
:1018F00062177307840738F09F5F5F4F220F331F13
:10190000441FAA1FA9F333D00E2E3AF0E0E830D0DE
:1019100091505040E695001CCAF729D0FE2F27D0E1
:10192000660F771F881FBB1F261737074807AB07AF
:10193000B0E809F0BB0B802DBF01FF2793585F4F24
:101940002AF09E3F510568F092C0DCC05F3FECF387
:10195000983EDCF3869577956795B795F7959F5FE9
:10196000C9F7880F911D9695879597F90895E1E03D
:10197000660F771F881FBB1F621773078407BA079C
:1019800020F0621B730B840BBA0BEE1F88F7E095F7
:10199000089504D06894B111B5C0089598D088F026
:1019A0009F5790F0B92F9927B751A0F0D1F0660F4B
:1019B000771F881F991F1AF0BA95C9F712C0B13066
:1019C00081F09FD0B1E008959CC0672F782F8827C1
:1019D000B85F39F0B93FCCF3869577956795B395A5
:1019E000D9F73EF490958095709561957F4F8F4F14
:1019F0009F4F0895E89409C097FB3EF49095809519
:101A0000709561957F4F8F4F9F4F9923A9F0F92FC4
:101A100096E9BB279395F695879577956795B79542
:101A2000F111F8CFFAF4BB0F11F460FF1BC06F5F28
:101A30007F4F8F4F9F4F16C0882311F096E911C03A
:101A4000772321F09EE8872F762F05C0662371F05B
:101A500096E8862F70E060E02AF09A95660F771F6F
:101A6000881FDAF7880F9695879597F9089597F963
:101A70009F6780E870E060E008959FEF80EC089534
:101A800000240A941616170618060906089500245D
:101A90000A9412161306140605060895092E0394D7
:101AA000000C11F4882352F0BB0F40F4BF2B11F44B
:101AB00060FF04C06F5F7F4F8F4F9F4F089557FDAA
:101AC0009058440F551F59F05F3F71F04795880FAC
:101AD00097FB991F61F09F3F79F087950895121643
:101AE00013061406551FF2CF4695F1DF08C01616EF
:101AF00017061806991FF1CF8695710561050894A0
:101B00000895E894BB2766277727CB0197F90895B6
:101B10000BD0C4CFB5DF28F0BADF18F0952309F059
:101B2000A6CFABCF1124EECFCADFA0F3959FD1F3A0
:101B3000950F50E0551F629FF001729FBB27F00D7B
:101B4000B11D639FAA27F00DB11DAA1F649F6627D0
:101B5000B00DA11D661F829F2227B00DA11D621F1F
:101B6000739FB00DA11D621F839FA00D611D221FD9
:101B7000749F3327A00D611D231F849F600D211DBD
:101B8000822F762F6A2F11249F5750408AF0E1F060
:101B900088234AF0EE0FFF1FBB1F661F771F881FA9
:101BA00091505040A9F79E3F510570F060CFAACFE9
:101BB0005F3FECF3983EDCF3869577956795B79594
:101BC000F795E7959F5FC1F7FE2B880F911D9695BE
:101BD000879597F90895CF93DF938230910510F49C
:101BE00082E090E0E091EA04F091EB0420E030E044
:101BF000C0E0D0E0309711F140815181481759077A
:101C0000C0F04817590761F482819381209719F039
:101C10009B838A832BC09093EB048093EA0426C0B5
:101C20002115310519F04217530718F49A01BE0126
:101C3000DF01EF010280F381E02DDCCF21153105BA
:101C400009F1281B390B2430310590F412968D913F
:101C50009C9113976115710521F0FB019383828399
:101C600004C09093EB048093EA04FD01329644C0D3
:101C7000FD01E20FF31F81939193225031092D93BF
:101C80003C933AC02091E8043091E904232B41F4BD
:101C900020910202309103023093E9042093E8047A
:101CA00020910002309101022115310541F42DB738
:101CB0003EB74091040250910502241B350BE09180
:101CC000E804F091E904E217F307A0F42E1B3F0BA0
:101CD0002817390778F0AC014E5F5F4F241735079E
:101CE00048F04E0F5F1F5093E9044093E80481933E
:101CF000919302C0E0E0F0E0CF01DF91CF91089531
:101D00000F931F93CF93DF93009709F48CC0FC01CE
:101D10003297138212820091EA041091EB040115AC
:101D2000110581F420813181820F931F2091E804F5
:101D30003091E9042817390779F5F093E904E09325
:101D4000E80471C0D80140E050E0AE17BF0750F47E
:101D500012962D913C911397AD012115310509F192
:101D6000D901F3CF9D01DA01338322836081718130
:101D7000860F971F8217930769F4EC012881398138
:101D8000260F371F2E5F3F4F318320838A819B812F
:101D900093838283452B29F4F093EB04E093EA04C8
:101DA00042C01396FC93EE931297ED01499159911D
:101DB0009E01240F351FE217F30771F48081918192
:101DC000840F951F029611969C938E938281938126
:101DD00013969C938E931297E0E0F0E0D801129650
:101DE0008D919C911397009719F0F8018C01F6CF13
:101DF0008D919C9198012E5F3F4F820F931F2091F0
:101E0000E8043091E9042817390769F4309729F478
:101E10001092EB041092EA0402C013821282109313
:101E2000E9040093E804DF91CF911F910F91089589
:101E300011E0C7E2D1E000E005C0802FFE01D4DC54
:101E40002196011DC832D10780E00807B1F7F89448
:021E5000FFCFC2
:101E52000000EC0480003400160030003200310033
:101E6200180033003500E502000000005A010903A2
:101E7200F202FE0200000000F1020A03F202FE0278
:101E82005B016201690100000000F0020E037001B3
:101E92000000000071010C033D050000000072010A
:101EA2000B0355050000000073010D0353050000EC
:101EB200000074010F037501870100000000970103
:101EC20011039801BE0100000000FD01100316037A
:101ED200FE01000000001F02120330032002000076
:101EE2000000510213035A03520200000000840250
:101EF2001403A203850200000000C4021503C502F8
:021F0200D0030A
:00000001FF
